:100000000C9496000C94A0000C94A0000C94A000FA
:100010000C94A0000C94A0000C94A0000C94A000E0
:100020000C94A0000C94A0000C94A0000C94A000D0
:100030000C94A0000C94A0000C94A0000C94A000C0
:100040000C94A0000C94A0000C94A0000C94A000B0
:100050000C94A000F1000A0123013C015401540159
:1000600054015401540154015401540154015401E8
:1000700054015401540154015401540154015401D8
:1000800054015401540154015401540154015401C8
:1000900054015401F1000A0123013C016101730183
:1000A00085019701A901A901A901A901A901A90136
:1000B000A901A901A901A901A901A901A901A901F0
:1000C000A901A901A901A901A901A901A901A901E0
:1000D000A901A901A901A901A901A901610173014E
:1000E00085019701B601C101CC01D701E101E10110
:1000F000E101E101E101E101E101E101E101E101F0
:10010000E101E101E101E101E101E101E101E101DF
:10011000E101E101E101E101E101E101E101E101CF
:10012000E101E101B601C101CC01D70111241FBEDB
:10013000CFE5D8E0DEBFCDBF0E94A2000C94E8015D
:100140000C94000060E081E40E94DE0063E084E43F
:100150000E94BB0063E084E40E94BF008130D1F7BD
:1001600063E084E40E94BF008130D1F360E081E469
:100170000E94E200EFCF40E00E94E50008950F9357
:100180001F93CF93DF931F92CDB7DEB7182F062FA3
:100190000E94550119828981853030F489818F5FF1
:1001A000898389818530D0F3602F812F0E9455018A
:1001B0000F90DF91CF911F910F91089541E00E9420
:1001C000E50008950E94AB01089590E0FC01E15420
:1001D000F109E432F10508F067C0E65DFF4F0C94C9
:1001E000E201413059F42AB381E090E002C0880F67
:1001F000991F6A95E2F7822B8ABB08952AB381E0A2
:1002000090E002C0880F991F6A95E2F780958223DB
:100210008ABB0895413059F427B381E090E002C0D1
:10022000880F991F6A95E2F7822B87BB089527B341
:1002300081E090E002C0880F991F6A95E2F78095EF
:10024000822387BB0895413059F424B381E090E0C4
:1002500002C0880F991F6A95E2F7822B84BB08952C
:1002600024B381E090E002C0880F991F6A95E2F7FD
:100270008095822384BB0895413059F421B381E0F5
:1002800090E002C0880F991F6A95E2F7822B81BB2C
:10029000089521B381E090E002C0880F991F6A950C
:1002A000E2F78095822381BB089590E0FC01E15440
:1002B000F109E432F10508F04CC0E25BFF4F0C9409
:1002C000E20129B381E090E0062E02C0880F991F59
:1002D0000A94E2F730E08223932302C09595879534
:1002E0006A95E2F7089526B381E090E0062E02C0F9
:1002F000880F991F0A94E2F730E08223932302C00B
:10030000959587956A95E2F7089523B381E090E08B
:10031000062E02C0880F991F0A94E2F730E082236C
:10032000932302C0959587956A95E2F7089520B3C7
:1003300081E090E0062E02C0880F991F0A94E2F730
:1003400030E08223932302C0959587956A95E2F762
:10035000089580E0089590E0FC01E154F109E43251
:10036000F10578F5EE58FF4F0C94E2012BB381E0D4
:1003700090E002C0880F991F6A95E2F782278BBB35
:10038000089528B381E090E002C0880F991F6A9514
:10039000E2F7822788BB089525B381E090E002C090
:1003A000880F991F6A95E2F7822785BB089522B3CB
:1003B00081E090E002C0880F991F6A95E2F78227DA
:1003C00082BB0895EE0FFF1F0590F491E02D099474
:0403D000F894FFCFCF
:00000001FF
